:100000000C942A000C94070A0C942E0A0C94380ABB
:100010000C9447000C9447000C9447000C94470044
:100020000C9447000C9447000C9480080C944700F3
:100030000C9447000C9447000C9447000C94470024
:100040000C9447000C9447000C9447000C94470014
:100050000C94470011241FBECFE5D8E0DEBFCDBF12
:1000600011E0A0E6B0E0E2EAF5E202C005900D92F0
:10007000A837B107D9F711E0A8E7B1E001C01D9298
:10008000AD38B107E1F70E9404120C94CF120C9422
:100090000000EF92FF920F931F937B018C0120E0F1
:1000A00030E040E05FE40E94C50388238CF0C80183
:1000B000B70120E030E040E05FE40E94C1010E940F
:1000C00053049B01AC01205030404040504806C0D2
:1000D000C801B7010E9453049B01AC01B901CA01D8
:1000E0001F910F91FF90EF900895A0E0B0E0EBE733
:1000F000F0E00C949812DC012B01FA019C919230F3
:1001000008F439C1EB018881823008F433C194309E
:1001100069F4843009F02FC111969C91119789815F
:10012000981709F428C1A0E6B0E025C1843009F48D
:1001300021C18230A9F4923009F01DC19A01AD01AC
:1001400088E0EA010990AE01E90109929E0181501F
:10015000C1F7E201898111969C918923818308C1AD
:10016000923009F407C112962D903C901397EB0141
:100170008A819B811496AD90BD90CD90DC901797AD
:10018000EC80FD800E811F819101281B390BB90184
:1001900037FF04C066277727621B730B6032710537
:1001A0000CF061C0121613066CF537014801062EDB
:1001B00004C096948794779467940A94D2F721E0C8
:1001C00030E040E050E004C0220F331F441F551FB1
:1001D0006A95D2F721503040404050402E213F21B7
:1001E00040235123211531054105510521F021E01E
:1001F00030E040E050E079018A01E628F72808293C
:1002000019293CC0232BD1F1260E371E350146019A
:10021000062E04C096948794779467940A94D2F734
:1002200021E030E040E050E004C0220F331F441FC3
:10023000551F6A95D2F721503040404050402A2146
:100240003B214C215D21211531054105510521F04E
:1002500021E030E040E050E059016A01A628B728CB
:10026000C828D9280BC0821593052CF01C01AA249C
:10027000BB24650103C0EE24FF24870111969C91E5
:10028000D20111968C91981709F445C0992339F041
:10029000A80197012A193B094C095D0906C0A6016E
:1002A00095012E193F09400B510B57FD08C01182D3
:1002B0003382228224833583468357831DC081E0A5
:1002C00081833382228288279927DC01821B930B4A
:1002D000A40BB50B84839583A683B7830DC0220F2F
:1002E000331F441F551F24833583468357838281E0
:1002F000938101979383828324813581468157813D
:10030000DA01C9010197A109B1098F5F9F4FAF4F72
:10031000BF4328F30BC0918333822282EA0CFB1C7B
:100320000C1D1D1DE482F5820683178383E0808304
:10033000248135814681578157FF1AC0C901AA27F8
:1003400097FDA095BA2F81709070A070B0705695EF
:10035000479537952795822B932BA42BB52B848318
:100360009583A683B7838281938101969383828349
:10037000DF0101C0D201CD01CDB7DEB7E2E10C94BF
:10038000B412A0E2B0E0E7ECF1E00C94A4126983AF
:100390007A838B839C832D833E834F835887E9E048
:1003A000EE2EF12CEC0EFD1ECE010196B7010E943F
:1003B00044068E010F5E1F4FCE010596B8010E94C4
:1003C00044068A8991E089278A8BC701B801AE016A
:1003D000475E5F4F0E9475000E946F05A096E6E0A1
:1003E0000C94C012A0E2B0E0E8EFF1E00C94A4128B
:1003F00069837A838B839C832D833E834F835887C5
:10040000F9E0EF2EF12CEC0EFD1ECE010196B701A6
:100410000E9444068E010F5E1F4FCE010596B80163
:100420000E944406C701B801AE01475E5F4F0E94BB
:1004300075000E946F05A096E6E00C94C012A0E241
:10044000B0E0E5E2F2E00C94981269837A838B8342
:100450009C832D833E834F835887CE010196BE0136
:10046000675F7F4F0E944406CE010596BE016F5E16
:100470007F4F0E9444069985923088F089898230A6
:10048000C8F0943019F4823051F404C0843029F457
:10049000923081F480E690E0C6C0923049F420E0CA
:1004A0009A858A89981321E02A87CE010996BBC0D4
:1004B000823049F420E09A858A89981321E02A8BBA
:1004C000CE014196B0C02D843E844F8458886D88FB
:1004D0007E888F88988CEE24FF248701AA24BB2471
:1004E000650140E050E060E070E0E0E0F0E0C10174
:1004F00081709070892BE9F0E60CF71C081D191D1E
:100500009A01AB012A0D3B1D4C1D5D1D80E090E062
:10051000A0E0B0E0E614F7040805190520F481E036
:1005200090E0A0E0B0E0BA01A901480F591F6A1F8E
:100530007B1FAA0CBB1CCC1CDD1C97FE08C081E0F5
:1005400090E0A0E0B0E0A82AB92ACA2ADB2A3196B6
:10055000E032F10549F0660C771C881C991C569412
:10056000479437942794C3CFFA85EA892B893C892D
:100570008B859C85280F391F2E5F3F4F17C0CA01FE
:1005800081709070892B61F016950795F794E79428
:1005900080E090E0A0E0B0E8E82AF92A0A2B1B2BC3
:1005A00076956795579547952F5F3F4F77FDE7CF36
:1005B0000CC0440F551F661F771F17FD4160EE0CDE
:1005C000FF1C001F111F21503040403090E05907A0
:1005D00090E0690790E4790760F32B8F3C8FDB0193
:1005E000CA018F779070A070B07080349105A1051A
:1005F000B10561F447FD0AC0E114F10401051105DC
:1006000029F0405C5F4F6F4F7F4F40781A8EFE1786
:1006100011F081E08A8F4D8F5E8F6F8F78A383E01A
:10062000898FCE0149960E946F05A096E2E10C9455
:10063000B412A8E1B0E0EFE1F3E00C94A0126983FA
:100640007A838B839C832D833E834F835887B9E0C5
:10065000EB2EF12CEC0EFD1ECE010196B7010E948F
:1006600044068E010F5E1F4FCE010596B8010E9411
:1006700044062985223008F47EC03989323010F4CE
:10068000B8017CC08A859A8989278A87243011F02D
:10069000223031F4231709F06EC060E670E06EC0BE
:1006A000343039F41D861E861F86188A1C861B86E8
:1006B00004C0323021F484E08987B7015FC02B8504
:1006C0003C858B899C89281B390B3C872B87ED84C3
:1006D000FE840F851889AD88BE88CF88D88CEA142F
:1006E000FB040C051D0540F4EE0CFF1C001F111F40
:1006F000215030403C872B8720E030E040E050E044
:1007000080E090E0A0E0B0E460E070E0EA14FB0478
:100710000C051D0540F0282B392B4A2B5B2BEA18C2
:10072000FB080C091D09B695A79597958795EE0CC2
:10073000FF1C001F111F6F5F7F4F6F31710531F775
:10074000DA01C9018F779070A070B0708034910584
:10075000A105B10561F427FD0AC0E114F10401050A
:10076000110529F0205C3F4F4F4F5F4F20782D87B8
:100770003E874F87588BBE01675F7F4FCB010E943A
:100780006F056896EAE00C94BC12A8E1B0E0EBECCF
:10079000F3E00C94A41269837A838B839C832D836A
:1007A0003E834F83588789E0E82EF12CEC0EFD1E26
:1007B000CE010196B7010E9444068E010F5E1F4FC5
:1007C000CE010596B8010E9444068985823040F02A
:1007D0008989823028F0C701B8010E94BC0601C097
:1007E0008FEF6896E6E00C94C012A8E0B0E0EBEF63
:1007F000F3E00C94A1129B01AC0183E08983DA0140
:10080000C9018827B7FD83959927AA27BB27B82E4A
:10081000211531054105510519F482E089833AC05B
:100820008823A9F0203080E0380780E0480780E87E
:10083000580729F460E070E080E09FEC30C0EE24BF
:10084000FF248701E21AF30A040B150B02C0790199
:100850008A018EE1C82ED12CDC82CB82ED82FE8211
:100860000F831887C801B7010E9420050197181649
:10087000190684F4082E04C0EE0CFF1C001F111F83
:100880000A94D2F7ED82FE820F831887C81AD90A1C
:10089000DC82CB82BA82CE0101960E946F05289637
:1008A000E9E00C94BD12ACE0B0E0E9E5F4E00C94B2
:1008B000A81269837A838B839C83CE010196BE0143
:1008C0006B5F7F4F0E9444068D81823061F18230E0
:1008D00050F1843021F48E81882351F12EC02F8174
:1008E000388537FD20C06E812F3131051CF066231D
:1008F000F9F023C08EE190E0821B930B29853A85A5
:100900004B855C8504C056954795379527958A9504
:10091000D2F76623B1F050954095309521953F4F21
:100920004F4F5F4F0EC020E030E040E050E009C084
:100930002FEF3FEF4FEF5FE704C020E030E040E0F3
:1009400050E8B901CA012C96E2E00C94C412A8E068
:10095000B0E0EDEAF4E00C94A0127B018C0161158B
:1009600071058105910519F482E0898360C083E0F7
:1009700089838EE1C82ED12CDC82CB82ED82FE826F
:100980000F831887C801B7010E942005FC01319729
:10099000F7FF3BC0222733272E1B3F0B570168016F
:1009A000022E04C0D694C794B794A7940A94D2F7A1
:1009B00040E050E060E070E081E090E0A0E0B0E076
:1009C00004C0880F991FAA1FBB1F2A95D2F7019751
:1009D000A109B1098E219F21A023B1230097A10570
:1009E000B10521F041E050E060E070E04A295B2968
:1009F0006C297D294D835E836F8378878EE190E03B
:100A00008E1B9F0B9C838B8312C0309781F00E2E20
:100A100004C0EE0CFF1C001F111F0A94D2F7ED82D8
:100A2000FE820F831887CE1ADF0ADC82CB821A82FD
:100A3000CE0101960E946F052896EAE00C94BC1244
:100A4000EF92FF920F931F937B018C0180E0E816D9
:100A500080E0F80681E0080780E0180788F48FEF4F
:100A6000E816F1040105110531F028F088E090E066
:100A7000A0E0B0E017C080E090E0A0E0B0E012C0DD
:100A800080E0E81680E0F80680E0080781E01807BB
:100A900028F088E190E0A0E0B0E004C080E190E0C0
:100AA000A0E0B0E020E230E040E050E0281B390B4D
:100AB0004A0B5B0B04C016950795F794E7948A954B
:100AC000D2F7F701E859FF4F8081281B310941090E
:100AD0005109C9011F910F91FF90EF900895DF9286
:100AE000EF92FF920F931F93FC01E480F580068143
:100AF0001781D1808081823048F480E090E0A0E1CD
:100B0000B0E0E82AF92A0A2B1B2BA5C0843009F48F
:100B10009FC0823021F4EE24FF24870105C0E11438
:100B2000F1040105110519F4E0E0F0E096C06281DE
:100B300073819FEF623879070CF05BC022E83FEFCA
:100B4000261B370B2A3131052CF020E030E040E045
:100B500050E02AC0B801A701022E04C0769567951F
:100B6000579547950A94D2F781E090E0A0E0B0E075
:100B700004C0880F991FAA1FBB1F2A95D2F701979F
:100B8000A109B1098E219F21A023B1230097A105BE
:100B9000B10521F081E090E0A0E0B0E09A01AB0166
:100BA000282B392B4A2B5B2BDA01C9018F779070E8
:100BB000A070B07080349105A105B10539F427FF0C
:100BC00009C0205C3F4F4F4F5F4F04C0215C3F4F37
:100BD0004F4F5F4FE0E0F0E02030A0E03A07A0E0A8
:100BE0004A07A0E45A0710F0E1E0F0E079018A0139
:100BF00027C06038710564F5FB01E158FF4FD8014B
:100C0000C7018F779070A070B07080349105A105F6
:100C1000B10539F4E7FE0DC080E490E0A0E0B0E05B
:100C200004C08FE390E0A0E0B0E0E80EF91E0A1FD8
:100C30001B1F17FF05C016950795F794E79431968B
:100C400087E016950795F794E7948A95D1F705C044
:100C5000EE24FF248701EFEFF0E06E2F6795662703
:100C60006795902F9F77D794DD24D7948E2F869504
:100C7000492F462B582F5D29B701CA011F910F91AB
:100C8000FF90EF90DF900895FC01DB0140815181DE
:100C90002281622F6F7770E0221F2227221F93810B
:100CA000892F880F822B282F30E0991F9927991FB1
:100CB00011969C93119721153105A9F54115510500
:100CC0006105710511F482E037C082E89FEF139649
:100CD0009C938E9312979A01AB0167E0220F331F0A
:100CE000441F551F6A95D1F783E08C930DC0220FE6
:100CF000331F441F551F12968D919C911397019796
:100D000013969C938E931297203080E0380780E0F2
:100D1000480780E4580758F314962D933D934D935C
:100D20005C93179708952F3F310579F441155105CC
:100D30006105710519F484E08C93089564FF03C084
:100D400081E08C9312C01C9210C02F573040139634
:100D50003C932E93129783E08C9387E0440F551FAA
:100D6000661F771F8A95D1F7706414964D935D9333
:100D70006D937C93179708951F93DC01FB019C9161
:100D8000923008F447C08081823008F443C0943028
:100D900051F411961C91843099F58181682F70E08F
:100DA000611B71093FC0843021F0923031F48230F0
:100DB000B9F18181882389F12DC011961C91119779
:100DC0008230F1F081811817D9F412962D913C915F
:100DD0001397828193818217930794F0281739071C
:100DE000BCF014968D919D910D90BC91A02D248105
:100DF000358146815781281739074A075B0718F460
:100E0000112341F00AC082179307A407B50740F4E5
:100E1000112319F061E070E005C06FEF7FEF02C0B1
:100E200060E070E0CB011F910895E1E4F0E0808183
:100E300088608083808181608083808182608083FC
:100E40008081846080830895A89508958CB920E0FE
:100E500030E040E050E0EBE2F0E0808186FD0CC045
:100E60002F5F3F4F4F4F5F4F203884E838078EE1A8
:100E7000480780E0580789F7089520E030E040E017
:100E800050E0EBE2F0E08081882364F02F5F3F4F79
:100E90004F4F5F4F203884E838078EE1480780E0E5
:100EA000580789F78CB1089588E260E00E94420AF1
:100EB00089E261E00E94420AEAE2F0E080818B7FF1
:100EC000808386E880BD87E689B9808180618083E0
:100ED0008081886080830895882369F4E3E5F0E0E9
:100EE00080818F7B8083808188608083E9E5F0E06A
:100EF00080818260808308959F92AF92BF92CF924B
:100F0000DF92EF92FF920F931F93882309F04FC057
:100F1000CB01BA0128EE33E040E050E00E943012ED
:100F20005B016C01689415F8D694C794B794A794A4
:100F30001694D1F7C601B5012FEF30E040E050E044
:100F40000E945B12611571058105910569F4992470
:100F50009A940F2EFFEFEF2EF0E0FF2EF0E00F2F10
:100F6000F0E01F2FF02D12C099249A949A94E92C46
:100F7000FF2400E010E0C601B501A80197010E941E
:100F80005B12611571058105910581F7C601B501F7
:100F9000A80197010E945B1220937D0130937E018E
:100FA00040937F0150938001892D81508CBF1F9108
:100FB0000F91FF90EF90DF90CF90BF90AF909F90F8
:100FC0000895882319F08130C1F40CC0E3E5F0E006
:100FD00080818160808380818D7F80838081846037
:100FE00080830895EEE4F0E080818E7F80838081AD
:100FF0008D7F80838081846080830895882319F0A9
:101000008130C1F40CC0E3E5F0E080818E7F808305
:1010100080818D7F808380818B7F80830895EEE443
:10102000F0E080818160808380818D7F80838081FA
:10103000846080830895EF92FF920F931F937A014B
:101040008B01882319F0813069F512C0CB01BA01F8
:1010500020E030E04FE753E40E941F0220E030E040
:1010600048EC52E40E9419030E9449006CBF1AC068
:1010700066B577B580E090E00E94A704A8019701CB
:101080000E941F0220E030E048EC52E40E94190365
:1010900020E030E040E85FE30E94C1010E94490087
:1010A0007BBD6ABD1F910F91FF90EF900895282F8F
:1010B00030E040E050E064E274EF80E090E00E94B5
:1010C0007D1237BD26BD08950E94640808950E94D0
:1010D00067080895813051F0813018F0823079F43A
:1010E0000AC070938A016093890108957093880102
:1010F0006093870108957093860160938501089538
:101100001F920F920FB60F9211242F933F934F937C
:101110005F936F937F938F939F93AF93BF93EF935F
:10112000FF938091810190918201A0918301B09100
:1011300084010196A11DB11D8093810190938201CC
:10114000A0938301B093840120917D0130917E01B1
:1011500040917F015091800182179307A407B50742
:1011600069F4E0918901F0918A0109951092810159
:10117000109282011092830110928401FF91EF91ED
:10118000BF91AF919F918F917F916F915F914F919F
:101190003F912F910F900FBE0F901F9018958823AD
:1011A00019F0813061F513C087E161E00E94420AC5
:1011B000E3E5F0E08081806480838081877F8083A5
:1011C00080818F7D808380818061808308958DE21E
:1011D00061E00E94420AEFE4F0E080818E7F80832C
:1011E000808182608083808188608083808180614B
:1011F000808380818F7B8083808180688083089555
:101200008FB920E030E040E050E0EFE2F0E0808194
:10121000882364F02F5F3F4F4F4F5F4F203884E8A3
:1012200038078EE1480780E0580789F78FB10895A5
:101230000F931F930DE210E0F8018081806280839C
:1012400080818160808380818260808389E161E028
:101250000E94420A8AE160E00E94420A88E161E05D
:101260000E94420A8BE161E00E94420AF8018081FB
:10127000806280838081806480831F910F910895B4
:101280008CE080B9E6E5F0E0808184608083089599
:10129000E6E5F0E0808180628083808180688083E1
:1012A00080818823ECF7E1E2F0E08081887F88305C
:1012B000E1F70895E6E5F0E0808180618083808138
:1012C000806880830895E6E5F0E080818062808315
:1012D00080818068808380818823ECF7E1E2F0E000
:1012E0008081887F8031E1F70895880F83B9E6E532
:1012F000F0E080818068808380818823ECF7E1E2E0
:10130000F0E08081887F8831E1F70895880F81605F
:1013100083B9E6E5F0E080818F7D808380818F7ED8
:10132000808380818068808380818823ECF7E1E27C
:10133000F0E08081887F8034E1F7089583B9E6E5A5
:10134000F0E080818F7D80838081806880838081D0
:101350008823ECF7E1E2F0E08081887F8832E1F7D2
:10136000089593B1E6E5F0E080818F7D80838081F0
:101370008064808380818F7E808380818068808389
:1013800080818823ECF7E1E2F0E08081887F80357E
:10139000E1F7892F0895EFE5F0E080818068808390
:1013A0000895EFE5F0E080818F77808308958130A4
:1013B00099F0813018F08230F9F414C0E5E5F0E0DE
:1013C000808181608083808182608083EBE5F0E0B2
:1013D00080818064808310C0EBE5F0E080818068CC
:1013E00080830AC0E4E5F0E0808180648083EBE5DF
:1013F000F0E0808180628083EFE5F0E080818068AA
:101400008083089590938C0180938B0108951F929F
:101410000F920FB60F9211242F933F934F935F9328
:101420006F937F938F939F93AF93BF93EF93FF93AC
:10143000E0918B01F0918C010995FF91EF91BF91A3
:10144000AF919F918F917F916F915F914F913F915C
:101450002F910F900FBE0F901F9018951F920F9213
:101460000FB60F9211240F900FBE0F901F9018957A
:101470001F920F920FB60F9211240F900FBE0F9074
:101480001F901895282F362F6AE00E944F12492F7F
:10149000822F0E944F12332321F0313009F086C091
:1014A00046C08230D1F0833020F4813009F07EC014
:1014B00006C0833001F1843009F078C02AC0EAE325
:1014C000F0E0208181E090E002C0880F991F4A95EA
:1014D000E2F78095822380830895E7E3F0E020819E
:1014E00081E090E002C0880F991F4A95E2F780954D
:1014F000822380830895E4E3F0E0208181E090E09E
:1015000002C0880F991F4A95E2F780958223808355
:101510000895E1E3F0E0208181E090E002C0880FCF
:10152000991F4A95E2F7809582238083089582303F
:10153000B9F0833018F48130C9F505C08330E9F083
:101540008430A1F527C0EAE3F0E0208181E090E05B
:1015500002C0880F991F4A95E2F7282B208308952F
:10156000E7E3F0E0208181E090E002C0880F991F5E
:101570004A95E2F7282B20830895E4E3F0E02081E8
:1015800081E090E002C0880F991F4A95E2F7282B6E
:1015900020830895E1E3F0E0208181E090E002C043
:1015A000880F991F4A95E2F7282B20830895282F4A
:1015B000362F6AE00E944F12492F822F0E944F124D
:1015C000332321F0313009F086C046C08230D1F09B
:1015D000833020F4813009F07EC006C0833001F1F1
:1015E000843009F078C02AC0EBE3F0E0208181E08C
:1015F00090E002C0880F991F4A95E2F780958223F8
:1016000080830895E8E3F0E0208181E090E002C06B
:10161000880F991F4A95E2F7809582238083089569
:10162000E5E3F0E0208181E090E002C0880F991F9F
:101630004A95E2F78095822380830895E2E3F0E003
:10164000208181E090E002C0880F991F4A95E2F75F
:1016500080958223808308958230B9F0833018F416
:101660008130C9F505C08330E9F08430A1F527C089
:10167000EBE3F0E0208181E090E002C0880F991F49
:101680004A95E2F7282B20830895E8E3F0E02081D3
:1016900081E090E002C0880F991F4A95E2F7282B5D
:1016A00020830895E5E3F0E0208181E090E002C02E
:1016B000880F991F4A95E2F7282B20830895E2E3CB
:1016C000F0E0208181E090E002C0880F991F4A95E8
:1016D000E2F7282B20830895282F6AE00E944F12FA
:1016E000392F822F0E944F128230B9F0833018F4C4
:1016F0008130C9F505C08330E9F08430A1F527C0F9
:10170000EBE3F0E0208181E090E002C0880F991FB8
:101710003A95E2F7282720830895E8E3F0E0208156
:1017200081E090E002C0880F991F3A95E2F72827E0
:1017300020830895E5E3F0E0208181E090E002C09D
:10174000880F991F3A95E2F7282720830895E2E34E
:10175000F0E0208181E090E002C0880F991F3A9567
:10176000E2F7282720830895282F6AE00E944F126D
:10177000392F822F0E944F128230A1F0833018F44B
:10178000813029F406C08330B1F08430E9F080E084
:10179000089589B390E002C0959587953A95E2F750
:1017A0008170089586B390E002C0959587953A952B
:1017B000E2F78170089583B390E002C09595879514
:1017C0003A95E2F78170089580B390E002C0959554
:1017D00087953A95E2F781700895282F362F6AE0B1
:1017E0000E944F12492F822F0E944F12332321F063
:1017F000313009F086C046C08230D1F0833020F409
:10180000813009F07EC006C0833001F1843009F0D8
:1018100078C02AC0EBE3F0E0208181E090E002C0D4
:10182000880F991F4A95E2F7809582238083089557
:10183000E8E3F0E0208181E090E002C0880F991F8A
:101840004A95E2F78095822380830895E5E3F0E0EE
:10185000208181E090E002C0880F991F4A95E2F74D
:101860008095822380830895E2E3F0E0208181E087
:1018700090E002C0880F991F4A95E2F78095822375
:10188000808308958230B9F0833018F48130C9F52F
:1018900005C08330E9F08430A1F527C0EBE3F0E028
:1018A000208181E090E002C0880F991F4A95E2F7FD
:1018B000282B20830895E8E3F0E0208181E090E088
:1018C00002C0880F991F4A95E2F7282B20830895BC
:1018D000E5E3F0E0208181E090E002C0880F991FED
:1018E0004A95E2F7282B20830895E2E3F0E0208177
:1018F00081E090E002C0880F991F4A95E2F7282BFB
:1019000020830895E7E2F0E080818F7780838081F3
:101910008064808380818F7D808380818F7E8083BF
:101920008081877F808380818B7F808380818D7F92
:101930008083808181608083E6E2F0E08081846042
:1019400080838081826080838081816080838081C8
:101950008068808380818064808308958130D1F0A5
:10196000813030F0823041F1833009F048C036C018
:10197000E7E2F0E080818F7E80838081877F8083B3
:1019800080818B7F808380818D7F808380818E7F2B
:10199000808335C0E7E2F0E080818F7E80838081A4
:1019A000877F808380818B7F808380818D7F808310
:1019B00080818160808323C0E7E2F0E080818F7EB8
:1019C00080838081877F808380818B7F80838081FB
:1019D0008260808380818E7F808311C0E7E2F0E0A7
:1019E00080818F7E80838081877F808380818B7FD1
:1019F0008083808182608083808181608083E6E251
:101A0000F0E080818064808320E030E040E050E0BE
:101A1000808184FD0CC02F5F3F4F4F4F5F4F2030C0
:101A20008DE2380781E3480781E0580789F784B1E0
:101A300090E0089581E00E946408089581E00E948A
:101A40006408089590E0AA2797FDA095BA2FBC01DD
:101A5000CD010E94F50320E030E040EA50E40E940E
:101A60001F0220E030E044E353E40E94190320E029
:101A700030E040EA50E40E94F201AB01BC0181E099
:101A80000E941B08089581E00E94CF0882E30E9413
:101A900057080895843009F463C0853050F48130CC
:101AA00061F18130C8F08230C9F1833009F0BDC0E6
:101AB00046C0873009F487C0883038F4853009F48F
:101AC00060C0863009F0B1C06DC0883009F48CC0A8
:101AD000893009F0AAC099C08EE060E00E94D70A60
:101AE0008FE060E00E94D70A80E160E00E94D70AA0
:101AF00081E160E00E94D70A08958EE061E00E94D3
:101B0000D70A8FE060E00E94D70A80E160E00E947F
:101B1000D70A81E160E00E94D70A08958EE060E074
:101B20000E94D70A8FE061E00E94D70A80E160E05E
:101B30000E94D70A81E160E00E94D70A08958EE0F2
:101B400061E00E94D70A8FE061E00E94D70A80E13D
:101B500060E00E94D70A81E160E00E94D70A089500
:101B60008EE060E00E94D70A8FE060E00E94D70A12
:101B700080E161E00E94D70A81E160E00E94D70A1B
:101B800008958EE061E00E94D70A8FE060E00E9435
:101B9000D70A80E161E00E94D70A81E160E00E94FB
:101BA000D70A08958EE060E00E94D70A8FE061E0D6
:101BB0000E94D70A80E161E00E94D70A81E160E0DB
:101BC0000E94D70A08958EE061E00E94D70A8FE054
:101BD00061E00E94D70A80E161E00E94D70A81E1BA
:101BE00060E00E94D70A08958EE060E00E94D70A64
:101BF0008FE060E00E94D70A80E160E00E94D70A8F
:101C000081E161E00E94D70A08958EE061E00E94C0
:101C1000D70A8FE060E00E94D70A80E160E00E946E
:101C2000D70A81E161E00E94D70A0895EF92FF92FE
:101C30000F931F93CF93DF93282F6AE00E944F12D8
:101C4000E92E822F0E944F12F82EC0E0D0E000EA69
:101C50001FE08F2D0E944A0D85E161E00E94D70AA6
:101C6000C8010197F1F785E160E00E94D70A8E2D47
:101C70000E944A0D86E161E00E94D70AC8010197DF
:101C8000F1F786E160E00E94D70A219681E0C43F27
:101C9000D807F9F6DF91CF911F910F91FF90EF9048
:101CA00008958EE061E00E94420A8FE061E00E94A8
:101CB000420A80E161E00E94420A81E161E00E9403
:101CC000420A86E161E00E94420A85E161E00E94E9
:101CD000420A0895813011F1813020F0823009F0FC
:101CE00051C036C084E10E94B40B813009F04AC073
:101CF00024E135E040E951E0CA010197F1F72150B4
:101D00003040D1F784E10E94B40B813009F03AC031
:101D100084E10E94B40B8130D9F336C08EE20E9478
:101D2000B40B813079F524E135E040E951E0CA0196
:101D30000197F1F721503040D1F78EE20E94B40BA9
:101D4000813001F58EE20E94B40B8130D9F31CC0C2
:101D50008AE20E94B40B8130A9F424E135E040E925
:101D600051E0CA010197F1F721503040D1F78AE2E2
:101D70000E94B40B813031F48AE20E94B40B8130AE
:101D8000D9F302C080E0089581E00895813051F0D8
:101D9000813018F0823079F40AC084E160E00E945A
:101DA000420A08958EE260E00E94420A08958AE2A3
:101DB00060E00E94420A089581E00E94AE0CA0E01B
:101DC000B0E0BC01CD0124EF31E040E050E00E94E2
:101DD00030122FEF33E040E050E00E945B12822F80
:101DE000932F08950E94820C0895813049F081302C
:101DF00018F0823061F408C080E20E946C0B0895F4
:101E000085E20E946C0B08958BE20E946C0B089592
:101E1000813051F0813018F0823079F40AC080E2CC
:101E200060E00E94D70A089585E260E00E94D70A28
:101E300008958BE260E00E94D70A0895813051F046
:101E4000813018F0823079F40AC080E261E00E94AB
:101E5000D70A089585E261E00E94D70A08958BE2CF
:101E600061E00E94D70A0895813051F0813018F066
:101E7000823079F40AC080E261E00E94420A08954B
:101E800085E261E00E94420A08958BE261E00E94CF
:101E9000420A08951F93182F682F61708EE00E94E8
:101EA000D70A612F669561708FE00E94D70A612F73
:101EB00066956695617080E10E94D70A1695169521
:101EC0001695117081E1612F0E94D70A1F91089524
:101ED000FF920F931F93F82E85E160E00E94D70ACE
:101EE0008F2D82958F700E944A0F87E161E00E94DA
:101EF000D70A00EA1FE0C8010197F1F787E160E027
:101F00000E94D70AC8010197F1F78F2D0E944A0F4E
:101F100087E161E00E94D70AC8010197F1F787E1E4
:101F200060E00E94D70AC8010197F1F71F910F9155
:101F3000FF90089581E00E94680F0895DF93CF938A
:101F400000D0CDB7DEB790E8998390EC9A83FE017C
:101F5000E80FF11D8181860F0E94680F0F900F908E
:101F6000CF91DF910895FF920F931F93F82E85E193
:101F700061E00E94D70A8F2D82958F700E944A0FD0
:101F800087E161E00E94D70A00EA1FE0C8010197DB
:101F9000F1F787E160E00E94D70AC8010197F1F7E5
:101FA0008F2D0E944A0F87E161E00E94D70AC80185
:101FB0000197F1F787E160E00E94D70AC801019715
:101FC000F1F71F910F91FF900895AF92BF92CF92BA
:101FD000DF92EF92FF920F93DF93CF93CDB7DEB7EF
:101FE00062970FB6F894DEBF0FBECDBF6B017C01C8
:101FF00099235CF4F094E094D094C094C11CD11C5B
:10200000E11CF11C8DE20E94B30F0FEF5E010894FA
:10201000A11CB11C0F5F802F992787FD909595011A
:10202000280F391F3A8B298BC701B6012AE030E00F
:1020300040E050E00E947D12E989FA896083C7017F
:10204000B6012AE030E040E050E00E947D12822F8D
:10205000932FA42FB52F6C017D01C114D104E1048D
:10206000F104C1F600238CF07E010894E11CF11C00
:10207000802F992787FD9095F701E80FF91F808140
:10208000805D0E94B30F01509AF762960FB6F894E4
:10209000DEBF0FBECDBFCF91DF910F91FF90EF90CC
:1020A000DF90CF90BF90AF9008951F93CF93DF93B1
:1020B000EC018881882351F010E00E94B30F1F5F6C
:1020C000FE01E10FF11D80818823B9F7DF91CF91E7
:1020D0001F9108958EE061E00E94420A8FE061E066
:1020E0000E94420A80E161E00E94420A81E161E0CF
:1020F0000E94420A85E161E00E94420A87E161E0B4
:102100000E94420A86E161E00E94420A86E160E0A4
:102110000E94D70A83E30E94680F82E30E94680F3F
:1021200088E20E94680F8CE00E94680F81E00E94A4
:10213000680F82E00E94680F0895AF92BF92CF921D
:10214000DF92EF92FF920F931F93DF93CF93CDB760
:10215000DEB760970FB6F894DEBF0FBECDBFDE01CD
:102160001196E8E6F1E080E101900D928150E1F7EF
:1021700081E260E00E94D70A6E010894C11CD11C64
:102180000F2EF8E1FF2EF02DEE240F2EF0EBAF2EE8
:10219000F4E0BF2EF02D00E911E08F2D0E94B40B6A
:1021A000882399F49501C8010197F1F72150304037
:1021B000D1F78F2D0E94B40B882339F48F2D0E9404
:1021C000B40B8823D9F3F601E08081E261E00E943C
:1021D000D70AF3940894C11CD11CFCE1FF16E9F660
:1021E0008E2D60960FB6F894DEBF0FBECDBFCF9197
:1021F000DF911F910F91FF90EF90DF90CF90BF90F4
:10220000AF90089581E261E00E94420A82E261E0BB
:102210000E94420A83E261E00E94420A84E261E095
:102220000E94420A88E160E00E94420A89E160E07F
:102230000E94420A8AE160E00E94420A8BE160E06B
:102240000E94420A88E161E00E94ED0B89E161E0B1
:102250000E94ED0B8AE161E00E94ED0B8BE161E0F1
:102260000E94ED0B81E261E00E94D70A82E261E008
:102270000E94D70A83E261E00E94D70A84E261E00B
:102280000E94D70A089581E00E946708089581E0BE
:102290000E9464080895882319F0813091F409C0E0
:1022A00083E260E00E94D70A84E261E00E94D70ADC
:1022B000089583E261E00E94D70A84E260E00E9410
:1022C000D70A08950E94A704AB01BC0181E00E94D7
:1022D0001B08089583E261E00E94420A84E261E003
:1022E0000E94420A81E00E94CF0808958DE061E0DB
:1022F0000E94D70A28E532E040E951E0CA0101977F
:10230000F1F721503040D1F78DE060E00E94D70A0C
:1023100008958DE060E00E94D70A08958DE061E0A5
:102320000E94D70A08958DE061E00E94420A089554
:102330000F931F93182F062F0E9448091065812FB5
:102340000E947509802F0E949E090E946309812FB7
:102350000E9486090E94B109182F0E945A09812FF4
:102360001F910F910895FF920F931F93182F062F1F
:10237000F42E0E944809812F80650E947509802FE4
:102380000E949E098F2D0E949E090E945A0980E496
:102390009CE90197F1F71F910F91FF9008950E941A
:1023A000400920E137E240E951E0CA010197F1F725
:1023B00021503040D1F70895EF92FF921F93CF93B1
:1023C000DF9310E00F2EF0E1EF2EF7E2FF2EF02D5D
:1023D000C0E9D1E0812F0E94160E9701CE0101972E
:1023E000F1F721503040D1F71F5FF4CF80E00E9419
:1023F000F50E089580E00E94F50E08950E94761172
:1024000080E00E941E0F0895EF92FF921F93CF93DA
:10241000DF930E94CF110E946A1081E061E00E9468
:102420009811182F0F2EF0E1EF2EF7E2FF2EF02D6E
:10243000C0E9D1E081E061E0412F0E94B311612F3A
:1024400070E080E090E00E94E50F9701CE010197D7
:10245000F1F721503040D1F71F5F0E949A0FEACF69
:10246000629FD001739FF001829FE00DF11D649F78
:10247000E00DF11D929FF00D839FF00D749FF00D04
:10248000659FF00D9927729FB00DE11DF91F639FA5
:10249000B00DE11DF91FBD01CF0111240895991B55
:1024A00079E004C0991F961708F0961B881F7A954B
:1024B000C9F780950895A1E21A2EAA1BBB1BFD0146
:1024C0000DC0AA1FBB1FEE1FFF1FA217B307E40713
:1024D000F50720F0A21BB30BE40BF50B661F771F6B
:1024E000881F991F1A9469F760957095809590954B
:1024F0009B01AC01BD01CF01089597FB092E052674
:102500000ED057FD04D0D7DF0AD0001C38F4509508
:102510004095309521953F4F4F4F5F4F0895F6F707
:1025200090958095709561957F4F8F4F9F4F08953F
:102530002F923F924F925F926F927F928F929F92D3
:10254000AF92BF92CF92DF92EF92FF920F931F93C1
:10255000CF93DF93CDB7DEB7CA1BDB0B0FB6F89472
:10256000DEBF0FBECDBF09942A88398848885F84B2
:102570006E847D848C849B84AA84B984C884DF8023
:10258000EE80FD800C811B81AA81B981CE0FD11D07
:102590000FB6F894DEBF0FBECDBFED010895F894DD
:0225A000FFCF6B
:1025A2000000000000000000000102020303030318
:1025B20004040404040404040505050505050505D1
:1025C20005050505050505050606060606060606B1
:1025D2000606060606060606060606060606060699
:1025E2000606060606060606070707070707070781
:1025F2000707070707070707070707070707070769
:102602000707070707070707070707070707070758
:102612000707070707070707070707070707070748
:102622000707070707070707080808080808080830
:102632000808080808080808080808080808080818
:102642000808080808080808080808080808080808
:1026520008080808080808080808080808080808F8
:1026620008080808080808080808080808080808E8
:1026720008080808080808080808080808080808D8
:1026820008080808080808080808080808080808C8
:1026920008080808080808080808080808080808B8
:1026A2000808080808080808313233413435364230
:0826B200373839432A30234474
:00000001FF
